:100000000C9434000C9446000C9446000C9446006A
:100010000C9468000C9446000C9446000C94460026
:100020000C9446000C9446000C9446000C94460038
:100030000C9446000C9446000C9446000C94460028
:100040000C9446000C9446000C9446000C94460018
:100050000C9446000C9446000C9446000C94460008
:100060000C9446000C94460011241FBECFEFD8E03C
:10007000DEBFCDBF21E0A0E0B1E001C01D92A13004
:10008000B207E1F70E9462000C9489000C94000012
:10009000F8948FEF8AB98BB18E7F8BB91092C10023
:1000A00087B18C7F87B988B1836088B9ECE6F0E0CE
:1000B000808183608083E8E6F0E0808182608083D5
:1000C000789408950E944800809100018BB9FCCF7C
:1000D0001F920F920FB60F9211248F9386B1813029
:1000E00041F4809100018F3F71F08F5F8093000198
:1000F0000AC086B1823039F480910001882319F05A
:100100008150809300018F910F900FBE0F901F9030
:060110001895F894FFCFE2
:00000001FF
