:100000000C9434000C9451000C9451000C94510049
:100010000C94E2000C9451000C9451000C9451008B
:100020000C9451000C9451000C9451000C9451000C
:100030000C9451000C9451000C9451000C945100FC
:100040000C9451000C9451000C9451000C945100EC
:100050000C9451000C9404010C9451000C94510028
:100060000C9451000C94510011241FBECFEFD8E026
:10007000DEBFCDBF11E0A0E0B1E0EAE5F2E002C0F2
:1000800005900D92A031B107D9F721E0A0E1B1E0D0
:1000900001C01D92A331B207E1F70E949D000C94AC
:1000A0002B010C940000ECE7F0E086E08083808177
:1000B0008660808380818064808380818F77808365
:1000C000808180628083EAE7F0E0108280818F6027
:1000D000808380818068808308958FEF8AB9109231
:1000E000C1001BB887B1886187B984B1866084B9C3
:1000F00087B18C7F87B988B1836088B9E8E6F0E082
:10010000808182608083ECE6F0E080818360808380
:100110000E94530078948BB382608BBB08959091BA
:10012000790080911201891720F485B1826085B928
:10013000089585B18D7F85B908950E946D00EAE725
:10014000F0E080818064808388B1806188B9E0912B
:100150001101F0E0E050FF4F80818BB98FE79EE303
:100160000197F1F700C0000088B18F7E88B988B18F
:10017000886088B9E0911001F0E0E050FF4F808185
:100180008BB98FE79EE30197F1F700C0000088B1BB
:10019000877F88B985B1846085B9809112018BB958
:1001A0008FE19EE40197F1F700C0000085B18B7FDD
:1001B00085B98FE19EE40197F1F700C000000E942D
:1001C0008F00BDCF1F920F920FB60F9211248F9305
:1001D000309909C0809112018F5F809312018F3F87
:1001E00011F480931201319909C08091120181505C
:1001F00080931201811102C0109212018F910F9011
:100200000FBE0F901F9018951F920F920FB60F926E
:1002100011248F939F93EF93FF9380917800909197
:100220007900EAE7F0E0808180618083892F829500
:100230008F7080931001892F8F70809311018081BE
:1002400080648083FF91EF919F918F910F900FBEFB
:0A0250000F901F901895F894FFCF4F
:10025A003F065B4F666D7D077F67777C395E7971F4
:00000001FF
